{
  "contractName": "Medical",
  "abi": [
    {
      "inputs": [],
      "payable": false,
      "stateMutability": "nonpayable",
      "type": "constructor"
    },
    {
      "anonymous": false,
      "inputs": [
        {
          "indexed": false,
          "internalType": "uint256",
          "name": "index",
          "type": "uint256"
        },
        {
          "indexed": false,
          "internalType": "bytes32",
          "name": "name",
          "type": "bytes32"
        },
        {
          "indexed": false,
          "internalType": "uint256",
          "name": "age",
          "type": "uint256"
        },
        {
          "indexed": false,
          "internalType": "uint256",
          "name": "examCount",
          "type": "uint256"
        }
      ],
      "name": "UserCreated",
      "type": "event"
    },
    {
      "anonymous": false,
      "inputs": [
        {
          "indexed": false,
          "internalType": "uint256",
          "name": "index",
          "type": "uint256"
        },
        {
          "indexed": false,
          "internalType": "bytes32",
          "name": "name",
          "type": "bytes32"
        },
        {
          "indexed": false,
          "internalType": "uint256",
          "name": "age",
          "type": "uint256"
        },
        {
          "indexed": false,
          "internalType": "uint256",
          "name": "examCount",
          "type": "uint256"
        }
      ],
      "name": "UserUpdated",
      "type": "event"
    },
    {
      "constant": true,
      "inputs": [
        {
          "internalType": "uint256",
          "name": "",
          "type": "uint256"
        }
      ],
      "name": "patients",
      "outputs": [
        {
          "internalType": "uint256",
          "name": "index",
          "type": "uint256"
        },
        {
          "internalType": "bytes32",
          "name": "name",
          "type": "bytes32"
        },
        {
          "internalType": "uint256",
          "name": "age",
          "type": "uint256"
        },
        {
          "internalType": "uint256",
          "name": "examCount",
          "type": "uint256"
        }
      ],
      "payable": false,
      "stateMutability": "view",
      "type": "function"
    },
    {
      "constant": true,
      "inputs": [],
      "name": "totalPatients",
      "outputs": [
        {
          "internalType": "uint256",
          "name": "",
          "type": "uint256"
        }
      ],
      "payable": false,
      "stateMutability": "view",
      "type": "function"
    },
    {
      "constant": false,
      "inputs": [
        {
          "internalType": "bytes32",
          "name": "name",
          "type": "bytes32"
        },
        {
          "internalType": "uint256",
          "name": "age",
          "type": "uint256"
        }
      ],
      "name": "insertPatient",
      "outputs": [
        {
          "internalType": "uint256",
          "name": "count",
          "type": "uint256"
        }
      ],
      "payable": false,
      "stateMutability": "nonpayable",
      "type": "function"
    },
    {
      "constant": false,
      "inputs": [
        {
          "internalType": "uint256",
          "name": "index",
          "type": "uint256"
        }
      ],
      "name": "updatePatient",
      "outputs": [
        {
          "internalType": "uint256",
          "name": "examCount",
          "type": "uint256"
        }
      ],
      "payable": false,
      "stateMutability": "nonpayable",
      "type": "function"
    },
    {
      "constant": true,
      "inputs": [
        {
          "internalType": "uint256",
          "name": "i",
          "type": "uint256"
        }
      ],
      "name": "getPatient",
      "outputs": [
        {
          "internalType": "uint256",
          "name": "index",
          "type": "uint256"
        },
        {
          "internalType": "bytes32",
          "name": "name",
          "type": "bytes32"
        },
        {
          "internalType": "uint256",
          "name": "age",
          "type": "uint256"
        },
        {
          "internalType": "uint256",
          "name": "examCount",
          "type": "uint256"
        }
      ],
      "payable": false,
      "stateMutability": "view",
      "type": "function"
    },
    {
      "constant": true,
      "inputs": [],
      "name": "getPatientsCount",
      "outputs": [
        {
          "internalType": "uint256",
          "name": "count",
          "type": "uint256"
        }
      ],
      "payable": false,
      "stateMutability": "view",
      "type": "function"
    }
  ],
  "bytecode": "0x608060405234801561001057600080fd5b5060006001819055506105b6806100286000396000f3fe608060405234801561001057600080fd5b50600436106100625760003560e01c806373472506146100675780637d3a6796146100a957806393119a8314610100578063dcd099a814610157578063deb5ef09146101a3578063ebc9b2f4146101c1575b600080fd5b6100936004803603602081101561007d57600080fd5b81019080803590602001909291905050506101df565b6040518082815260200191505060405180910390f35b6100d5600480360360208110156100bf57600080fd5b81019080803590602001909291905050506102fb565b6040518085815260200184815260200183815260200182815260200194505050505060405180910390f35b61012c6004803603602081101561011657600080fd5b8101908080359060200190929190505050610410565b6040518085815260200184815260200183815260200182815260200194505050505060405180910390f35b61018d6004803603604081101561016d57600080fd5b81019080803590602001909291908035906020019092919050505061044d565b6040518082815260200191505060405180910390f35b6101ab610546565b6040518082815260200191505060405180910390f35b6101c961054c565b6040518082815260200191505060405180910390f35b60006001600083815481106101f057fe5b9060005260206000209060040201600301600082825401925050819055507fae522fbe074aaae5f7b9655eab76df0edaabc1862667e6a9128d5ee1c1a4b6026000838154811061023c57fe5b9060005260206000209060040201600001546000848154811061025b57fe5b9060005260206000209060040201600101546000858154811061027a57fe5b9060005260206000209060040201600201546000868154811061029957fe5b9060005260206000209060040201600301546040518085815260200184815260200183815260200182815260200194505050505060405180910390a1600082815481106102e257fe5b9060005260206000209060040201600301549050919050565b60008060008060008410158061031357506001548411155b610385576040517f08c379a00000000000000000000000000000000000000000000000000000000081526004018080602001828103825260188152602001807f5573657220696e646578206f7574206f662072616e67652e000000000000000081525060200191505060405180910390fd5b6000858154811061039257fe5b906000526020600020906004020160000154600086815481106103b157fe5b906000526020600020906004020160010154600087815481106103d057fe5b906000526020600020906004020160020154600088815481106103ef57fe5b90600052602060002090600402016003015493509350935093509193509193565b6000818154811061041d57fe5b90600052602060002090600402016000915090508060000154908060010154908060020154908060030154905084565b6000610457610556565b604051806080016040528060015481526020018581526020018481526020016000815250905060008190806001815401808255809150509060018203906000526020600020906004020160009091929091909150600082015181600001556020820151816001015560408201518160020155606082015181600301555050506001600081548092919060010191905055507f7414b50d90b17c022d94b8d5e14ca72173d097928455e452a4a48b04cff491ec600154858560006040518085815260200184815260200183815260200182815260200194505050505060405180910390a160015491505092915050565b60015481565b6000600154905090565b604051806080016040528060008152602001600080191681526020016000815260200160008152509056fea265627a7a7231582055dbfae0d7c4d1852d89e67ffd81afaaed38800bc80ebffa5fe5b068e358176c64736f6c63430005100032",
  "source": "pragma solidity >=0.5.0 <0.7.0;\n\ncontract Medical {\n    struct Patient {\n        uint256 index;\n        bytes32 name;\n        uint256 age;\n        uint256 examCount;\n    }\n    Patient[] public patients;\n    uint256 public totalPatients;\n\n    constructor() public {\n        totalPatients = 0;\n    }\n\n    event UserCreated(uint256 index, bytes32 name, uint256 age, uint256 examCount);\n    event UserUpdated(uint256 index, bytes32 name, uint256 age, uint256 examCount);\n\n    function insertPatient(bytes32 name, uint256 age) public returns (uint256 count) {\n        Patient memory newPatient = Patient(totalPatients, name, age, 0);\n        patients.push(newPatient);\n        totalPatients++;\n\n        emit UserCreated(totalPatients, name, age, 0);\n        return totalPatients;\n    }\n\n    function updatePatient(uint256 index) public returns (uint256 examCount) {\n        patients[index].examCount += 1;\n\n        emit UserUpdated(patients[index].index, patients[index].name, patients[index].age, patients[index].examCount);\n        return patients[index].examCount;\n    }\n\n    function getPatient(uint256 i) public view returns (\n            uint256 index,\n            bytes32 name,\n            uint256 age,\n            uint256 examCount\n        )\n    {\n        require(index >= 0 || index <= totalPatients, \"User index out of range.\");\n\n        return (\n            patients[i].index,\n            patients[i].name,\n            patients[i].age,\n            patients[i].examCount\n        );\n    }\n\n    function getPatientsCount() public view returns (uint256 count) {\n        return totalPatients;\n    }\n}\n",
  "sourcePath": "/home/filipefborba/Insper/Blockchain/block_med/contracts/Medical.sol",
  "compiler": {
    "name": "solc",
    "version": "0.5.16+commit.9c3226ce.Emscripten.clang"
  },
  "schemaVersion": "3.1.0",
  "updatedAt": "2020-06-16T18:55:09.468Z",
  "networkType": "ethereum",
  "devdoc": {
    "methods": {}
  },
  "userdoc": {
    "methods": {}
  }
}